:020000040800F2
:08000000000003204900000884
:1000080008B5094B094E0A4C0A4D98470A488047DB
:100018000020B0474FF47A70A0470020A8474FF45B
:100028007A70A047F4E700BF1D0100081503000817
:10003800410100082903000845000008704700BF77
:10004800684620F007018D4679B52C492C4B99421A
:100058001BD2DA1C0C1D151B2A4825F00302161D9D
:1000680005680423B3420D60C2F380020DD022B1AB
:1000780045680823B342256007D01A1D1D588458C7
:100088005D500833B3428C50F7D1204820494FF0D7
:1000980000028842B8BF40F8042BFFF6FAAF4EF6CC
:1000A8008850CEF200004FF460530168C4F2020396
:1000B80041F4700202601D6843F6080443F6040226
:1000C800C4F20204C4F2020243F21000002145F017
:1000D8000105C2F200401D6021601060186843F6F7
:1000E8000C02C4F2020220F4802018601160064B52
:1000F8009847BDE879408546704700BF000000205A
:10010800000000203C03000809000008000000204F
:100118009001002008B540F27913C0F60003984713
:1001280040F29520C0F60000804740F2A921C0F6B1
:100138000001884708BD00BF82B04EF2603200213E
:10014800C0F2160248F21F53019102FB00F0C5F2FB
:10015800EB13A3FB0010019B42099A4205D90199B0
:10016800481C0190019B9A42F9D802B0704700BF21
:100178004FF46052C4F2020210B4116841F48030A6
:100188004FF4A063106004E011688C0307D4013BAE
:1001980005D0146814F4003F03F1FF33F4D04FF492
:1001A800605243F60401C4F20202C4F2020145F6A9
:1001B80008204FF46153C4F20203C0F2407014687F
:1001C800086018684FF4E041C4F2000140F0805024
:1001D8001860086843F60803C4F2020340F440407C
:1001E8000860196841F010001860196841F400406F
:1001F8001860196841F4A0501860136843F08071C2
:10020800116010688001FCD54FF4E043C4F200038C
:1002180047F20402196841F480301860C4F2000201
:100228001368D903FCD54FF4E040C4F2000047F24C
:100238000402016841F400330360C4F2000210684C
:100248008303FCD54FF47053C4F2020343F608024B
:10025800C4F2020244F205611960106820F0030339
:100268001360116841F002001060136803F0030185
:100278000229FAD143F63000C4F2020002686FEA9C
:10028800D2236FEAC321016010BC70474EF60852B2
:1002980040F20003CEF20002C2F20003136070477E
:1002A8004FF4C053C4F2020341F604011A6822F065
:1002B800406018601A68C4F2020142F08060186059
:1002C8000B6841F60802C4F2020223F400500860E9
:1002D800116821F040631360106841F60C03C4F202
:1002E800020340F0406111601A6822F04060186013
:1002F800196841F61402C4F2020241F080601860E5
:10030800136823F400511160704700BF38B941F6F3
:100318001403C4F202031A6842F4005018607047CC
:1003280038B941F61403C4F202031A6822F40050E3
:040338001860704792
:0400000508000049A6
:00000001FF
