:020000040800F2
:0800000000000320810000084C
:1000080008B540F2C1730120C0F60003984708BD47
:1000180080B5104B104E114C114D82B098470027F7
:10002800104880474FF4FA71384602220E4B009769
:10003800DFF83CC0E04738460C4988470020B04705
:100048004FF47A70A0470020A8474FF47A70A04771
:10005800F4E700BF55010008B9060008810100084F
:10006800E50600087D00000809000008A50600084C
:1000780085060008704700BF684620F007018D46D6
:1000880079B52C492C4B99421BD2DA1C0C1D151B37
:100098002A4825F00302161D05680423B3420D60A3
:1000A800C2F380020DD022B145680823B34225600F
:1000B80007D01A1D1D5884585D500833B3428C5020
:1000C800F7D1204820494FF000028842B8BF40F8D5
:1000D800042BFFF6FAAF4EF68850CEF200004FF42C
:1000E80060530168C4F2020341F4700202601D68A3
:1000F80043F6080443F60402C4F20204C4F20202FE
:1001080043F21000002145F00105C2F200401D60D5
:1001180021601060186843F60C02C4F2020220F451
:10012800802018601160064B9847BDE879408546E5
:10013800704700BF0000002000000020EC07000806
:1001480019000008000000209003002008B540F2C4
:10015800B913C0F60003984740F2D520C0F6000056
:10016800804740F21531C0F60001884740F211720D
:10017800C0F60002904708BD82B04EF260320021FE
:10018800C0F2160248F21F53019102FB00F0C5F2BB
:10019800EB13A3FB0010019B42099A4205D9019970
:1001A800481C0190019B9A42F9D802B0704700BFE1
:1001B8004FF46052C4F2020210B4116841F4803066
:1001C8004FF4A063106004E011688C0307D4013B6E
:1001D80005D0146814F4003F03F1FF33F4D04FF452
:1001E800605243F60401C4F20202C4F2020145F669
:1001F80008204FF46153C4F20203C0F2407014683F
:10020800086018684FF4E041C4F2000140F08050E3
:100218001860086843F60803C4F2020340F440403B
:100228000860196841F010001860196841F400402E
:100238001860196841F4A0501860136843F0807181
:10024800116010688001FCD54FF4E043C4F200034C
:1002580047F20402196841F480301860C4F20002C1
:100268001368D903FCD54FF4E040C4F2000047F20C
:100278000402016841F400330360C4F2000210680C
:100288008303FCD54FF47053C4F2020343F608020B
:10029800C4F2020244F205611960106820F00303F9
:1002A8001360116841F002001060136803F0030145
:1002B8000229FAD143F63000C4F2020002686FEA5C
:1002C800D2236FEAC321016010BC70474EF6085272
:1002D80040F20023CEF20002C2F20003136070471E
:1002E80040F200238008C2F2000343F82010704750
:1002F80008B540F2756140F2E9233C20C0F60001E0
:100308000022C0F60003984708BD00BF38B5334D3A
:100318002B78012B61D03248324900240470448084
:1003280084808460047444828482846180F82040DC
:1003380044848484846280F830404486848684635C
:1003480080F84040A0F84240A0F84440846480F817
:100358005040A0F85240A0F85440846580F86040AE
:10036800A0F86240A0F86440846680F87040A0F865
:100378007240A0F87440846780F88040A0F88240FA
:10038800A0F88440C0F8884080F89040A0F89240D7
:10039800A0F89440C0F8984088474EF214014EF2F5
:1003A8001802CEF20001CEF200024BF61F704EF298
:1003B8001003CEF20003C0F202000860146019684E
:1003C80041F004021A60186840F0020119601A68C6
:1003D80042F00100186001232B7038BDA0000020F6
:1003E80000000020F90200089D4A9E4B1168481C35
:1003F80010B510601C88A2B21AB11988481E84B2C0
:100408001C80994C2378012B30D0207C964A0128F7
:100418003ED094F82000944A01284CD094F830003B
:10042800914A01285BD094F840008F4A01286AD08D
:1004380094F850008C4A01287DD094F860008A4ACC
:10044800012800F0918094F87000874A012800F094
:10045800A48094F88000844A012800F0B78094F8BA
:100468009000814A012800F0CB8010BD6288511E9F
:1004780088B260800028C8D16378012B00F0D98049
:10048800A288A16862808847207C774A0128C0D169
:10049800538A591E88B250820028BAD1537C012B46
:1004A80000F0C580A28AA1696282884794F820007A
:1004B8006D4A0128B2D1538C591E88B25084002845
:1004C800ACD192F82130012B00F0C780A28CA16A30
:1004D8006284884794F83000634A0128A3D1538E78
:1004E800591E88B2508600289DD192F83130012BD0
:1004F80000F0B080A28EA16B6286884794F8400015
:10050800594A012894D1B2F84230591E88B2A2F84B
:10051800420000288CD192F84130012B00F09780DE
:10052800B4F84420A16CA4F84220884794F85000FD
:100538004D4A012881D1B2F85230591E88B2A2F82A
:10054800520000287FF479AF92F85130012B7BD00C
:10055800B4F85420A16DA4F85220884794F860009C
:10056800414A01287FF46FAFB2F86230591E88B251
:10057800A2F8620000287FF466AF92F86130012B80
:100588005FD0B4F86420A16EA4F86220884794F87C
:100598007000354A01287FF45CAFB2F87230591EFA
:1005A80088B2A2F8720000287FF453AF92F8713035
:1005B800012B43D0B4F87420A16FA4F872208847A7
:1005C80094F88000284A01287FF449AFB2F88230B5
:1005D800591E88B2A2F8820000287FF440AF92F832
:1005E8008130012B27D0B4F88420D4F88810A4F8DF
:1005F8008220884794F890001B4A01287FF435AF81
:10060800B2F89230591E88B2A2F8920000287FF4FE
:100618002CAF92F89130D4F89810012B08BF82F8CB
:100628009000B4F89420A4F89220884710BD107464
:1006380038E7207024E782F88000D4E782F8700059
:10064800B8E782F860009CE782F8500080E782F8FB
:10065800400065E782F830004CE782F8200035E773
:10066800A4000020A80000200000002008B540F2E7
:10067800F133C0F60003984708BD00BF10B440F23C
:100688000004C2F2000404EB00108360019B427076
:10069800C3604180818010BC704700BF092803D81F
:1006A8000001024B01221A54704700BF00000020CD
:1006B80040B941F61401C4F202010B6843F4005238
:1006C8000A607047012800D0704741F61403C4F24D
:1006D80002031A6842F480401860704740B941F636
:1006E8001401C4F202010B6823F400520A60704737
:1006F800012800D0704741F61403C4F202031A68B7
:1007080022F48040186070474FF4C051C4F20201CF
:1007180010B50B6823F040620A600C6841F60400CB
:10072800C4F2020044F080630B60046841F60802DA
:10073800C4F2020224F400530360146824F04063F6
:100748001360146841F60C03C4F2020344F04064D9
:1007580014601C6824F040641C601C6844F08064C9
:100768001C600C6824F040540C600C6844F0805401
:100778000C60016821F480410160106820F040514C
:100788001160106840F0405111601A6822F0405022
:100798001860196841F61402C4F2020241F0805050
:1007A8001860116840F2E56321F400501060C0F64B
:1007B80000030120984710BD40B941F61401C4F266
:1007C80002010B6883F400520A607047012800D0C8
:1007D800704741F61403C4F202031A6882F4804099
:0407E80018607047DE
:04000005080000816E
:00000001FF
